{
  "_format": "hh-sol-artifact-1",
  "contractName": "NFTMarket721",
  "sourceName": "contracts/NFTMarket.sol",
  "abi": [
    {
      "inputs": [],
      "stateMutability": "nonpayable",
      "type": "constructor"
    },
    {
      "anonymous": false,
      "inputs": [
        {
          "indexed": true,
          "internalType": "uint256",
          "name": "itemId",
          "type": "uint256"
        },
        {
          "indexed": true,
          "internalType": "address",
          "name": "nftContract",
          "type": "address"
        },
        {
          "indexed": false,
          "internalType": "address",
          "name": "owner",
          "type": "address"
        },
        {
          "indexed": false,
          "internalType": "address",
          "name": "bidder",
          "type": "address"
        },
        {
          "indexed": false,
          "internalType": "uint256",
          "name": "bidAmount",
          "type": "uint256"
        }
      ],
      "name": "ItemOfferCreated",
      "type": "event"
    },
    {
      "anonymous": false,
      "inputs": [
        {
          "indexed": true,
          "internalType": "uint256",
          "name": "itemId",
          "type": "uint256"
        },
        {
          "indexed": true,
          "internalType": "address",
          "name": "nftContract",
          "type": "address"
        },
        {
          "indexed": true,
          "internalType": "uint256",
          "name": "tokenId",
          "type": "uint256"
        },
        {
          "indexed": false,
          "internalType": "address",
          "name": "seller",
          "type": "address"
        },
        {
          "indexed": false,
          "internalType": "address",
          "name": "owner",
          "type": "address"
        },
        {
          "indexed": false,
          "internalType": "string",
          "name": "category",
          "type": "string"
        },
        {
          "indexed": false,
          "internalType": "uint256",
          "name": "price",
          "type": "uint256"
        }
      ],
      "name": "MarketItemCreated",
      "type": "event"
    },
    {
      "anonymous": false,
      "inputs": [
        {
          "indexed": true,
          "internalType": "uint256",
          "name": "itemId",
          "type": "uint256"
        },
        {
          "indexed": true,
          "internalType": "address",
          "name": "nftContract",
          "type": "address"
        },
        {
          "indexed": true,
          "internalType": "uint256",
          "name": "tokenId",
          "type": "uint256"
        },
        {
          "indexed": false,
          "internalType": "address",
          "name": "seller",
          "type": "address"
        },
        {
          "indexed": false,
          "internalType": "address",
          "name": "buyer",
          "type": "address"
        },
        {
          "indexed": false,
          "internalType": "string",
          "name": "category",
          "type": "string"
        },
        {
          "indexed": false,
          "internalType": "uint256",
          "name": "price",
          "type": "uint256"
        }
      ],
      "name": "MarketSaleCreated",
      "type": "event"
    },
    {
      "inputs": [
        {
          "internalType": "uint256",
          "name": "itemId",
          "type": "uint256"
        },
        {
          "internalType": "uint256",
          "name": "offerIndex",
          "type": "uint256"
        }
      ],
      "name": "acceptOffer",
      "outputs": [],
      "stateMutability": "nonpayable",
      "type": "function"
    },
    {
      "inputs": [
        {
          "internalType": "uint256",
          "name": "itemId",
          "type": "uint256"
        }
      ],
      "name": "cancelMarketItem",
      "outputs": [],
      "stateMutability": "nonpayable",
      "type": "function"
    },
    {
      "inputs": [
        {
          "internalType": "uint256",
          "name": "itemId",
          "type": "uint256"
        },
        {
          "internalType": "uint256",
          "name": "offerIndex",
          "type": "uint256"
        }
      ],
      "name": "cancelOffer",
      "outputs": [],
      "stateMutability": "nonpayable",
      "type": "function"
    },
    {
      "inputs": [
        {
          "internalType": "address",
          "name": "",
          "type": "address"
        },
        {
          "internalType": "uint256",
          "name": "",
          "type": "uint256"
        }
      ],
      "name": "contractToTokenToItemId",
      "outputs": [
        {
          "internalType": "uint256",
          "name": "",
          "type": "uint256"
        }
      ],
      "stateMutability": "view",
      "type": "function"
    },
    {
      "inputs": [
        {
          "internalType": "address",
          "name": "nftContract",
          "type": "address"
        },
        {
          "internalType": "uint256",
          "name": "tokenId",
          "type": "uint256"
        },
        {
          "internalType": "uint256",
          "name": "price",
          "type": "uint256"
        },
        {
          "internalType": "string",
          "name": "category",
          "type": "string"
        }
      ],
      "name": "createMarketItem",
      "outputs": [],
      "stateMutability": "payable",
      "type": "function"
    },
    {
      "inputs": [
        {
          "internalType": "uint256",
          "name": "itemId",
          "type": "uint256"
        }
      ],
      "name": "createMarketSale",
      "outputs": [],
      "stateMutability": "payable",
      "type": "function"
    },
    {
      "inputs": [],
      "name": "discountManager",
      "outputs": [
        {
          "internalType": "address",
          "name": "",
          "type": "address"
        }
      ],
      "stateMutability": "view",
      "type": "function"
    },
    {
      "inputs": [],
      "name": "fetchCreateNFTs",
      "outputs": [
        {
          "components": [
            {
              "internalType": "uint256",
              "name": "itemId",
              "type": "uint256"
            },
            {
              "internalType": "address",
              "name": "nftContract",
              "type": "address"
            },
            {
              "internalType": "uint256",
              "name": "tokenId",
              "type": "uint256"
            },
            {
              "internalType": "address payable",
              "name": "seller",
              "type": "address"
            },
            {
              "internalType": "address payable",
              "name": "buyer",
              "type": "address"
            },
            {
              "internalType": "string",
              "name": "category",
              "type": "string"
            },
            {
              "internalType": "uint256",
              "name": "price",
              "type": "uint256"
            },
            {
              "internalType": "bool",
              "name": "isSold",
              "type": "bool"
            },
            {
              "internalType": "bool",
              "name": "cancelled",
              "type": "bool"
            }
          ],
          "internalType": "struct NFTMarket721.MarketItem[]",
          "name": "",
          "type": "tuple[]"
        }
      ],
      "stateMutability": "view",
      "type": "function"
    },
    {
      "inputs": [],
      "name": "fetchPurchasedNFTs",
      "outputs": [
        {
          "components": [
            {
              "internalType": "uint256",
              "name": "itemId",
              "type": "uint256"
            },
            {
              "internalType": "address",
              "name": "nftContract",
              "type": "address"
            },
            {
              "internalType": "uint256",
              "name": "tokenId",
              "type": "uint256"
            },
            {
              "internalType": "address payable",
              "name": "seller",
              "type": "address"
            },
            {
              "internalType": "address payable",
              "name": "buyer",
              "type": "address"
            },
            {
              "internalType": "string",
              "name": "category",
              "type": "string"
            },
            {
              "internalType": "uint256",
              "name": "price",
              "type": "uint256"
            },
            {
              "internalType": "bool",
              "name": "isSold",
              "type": "bool"
            },
            {
              "internalType": "bool",
              "name": "cancelled",
              "type": "bool"
            }
          ],
          "internalType": "struct NFTMarket721.MarketItem[]",
          "name": "",
          "type": "tuple[]"
        }
      ],
      "stateMutability": "view",
      "type": "function"
    },
    {
      "inputs": [
        {
          "internalType": "string",
          "name": "category",
          "type": "string"
        }
      ],
      "name": "getItemsByCategory",
      "outputs": [
        {
          "components": [
            {
              "internalType": "uint256",
              "name": "itemId",
              "type": "uint256"
            },
            {
              "internalType": "address",
              "name": "nftContract",
              "type": "address"
            },
            {
              "internalType": "uint256",
              "name": "tokenId",
              "type": "uint256"
            },
            {
              "internalType": "address payable",
              "name": "seller",
              "type": "address"
            },
            {
              "internalType": "address payable",
              "name": "buyer",
              "type": "address"
            },
            {
              "internalType": "string",
              "name": "category",
              "type": "string"
            },
            {
              "internalType": "uint256",
              "name": "price",
              "type": "uint256"
            },
            {
              "internalType": "bool",
              "name": "isSold",
              "type": "bool"
            },
            {
              "internalType": "bool",
              "name": "cancelled",
              "type": "bool"
            }
          ],
          "internalType": "struct NFTMarket721.MarketItem[]",
          "name": "",
          "type": "tuple[]"
        }
      ],
      "stateMutability": "view",
      "type": "function"
    },
    {
      "inputs": [],
      "name": "getItemsSold",
      "outputs": [
        {
          "internalType": "uint256",
          "name": "",
          "type": "uint256"
        }
      ],
      "stateMutability": "view",
      "type": "function"
    },
    {
      "inputs": [],
      "name": "getMarketItems",
      "outputs": [
        {
          "components": [
            {
              "internalType": "uint256",
              "name": "itemId",
              "type": "uint256"
            },
            {
              "internalType": "address",
              "name": "nftContract",
              "type": "address"
            },
            {
              "internalType": "uint256",
              "name": "tokenId",
              "type": "uint256"
            },
            {
              "internalType": "address payable",
              "name": "seller",
              "type": "address"
            },
            {
              "internalType": "address payable",
              "name": "buyer",
              "type": "address"
            },
            {
              "internalType": "string",
              "name": "category",
              "type": "string"
            },
            {
              "internalType": "uint256",
              "name": "price",
              "type": "uint256"
            },
            {
              "internalType": "bool",
              "name": "isSold",
              "type": "bool"
            },
            {
              "internalType": "bool",
              "name": "cancelled",
              "type": "bool"
            }
          ],
          "internalType": "struct NFTMarket721.MarketItem[]",
          "name": "",
          "type": "tuple[]"
        }
      ],
      "stateMutability": "view",
      "type": "function"
    },
    {
      "inputs": [
        {
          "internalType": "uint256",
          "name": "itemId",
          "type": "uint256"
        }
      ],
      "name": "getMarketOffers",
      "outputs": [
        {
          "components": [
            {
              "internalType": "uint256",
              "name": "offerId",
              "type": "uint256"
            },
            {
              "internalType": "address payable",
              "name": "bidder",
              "type": "address"
            },
            {
              "internalType": "uint256",
              "name": "offerAmount",
              "type": "uint256"
            },
            {
              "internalType": "uint256",
              "name": "offerTime",
              "type": "uint256"
            },
            {
              "internalType": "bool",
              "name": "cancelled",
              "type": "bool"
            },
            {
              "internalType": "bool",
              "name": "accepted",
              "type": "bool"
            }
          ],
          "internalType": "struct NFTMarket721.MarketOffer[]",
          "name": "",
          "type": "tuple[]"
        }
      ],
      "stateMutability": "view",
      "type": "function"
    },
    {
      "inputs": [
        {
          "internalType": "uint256",
          "name": "",
          "type": "uint256"
        }
      ],
      "name": "idToMarketItem",
      "outputs": [
        {
          "internalType": "uint256",
          "name": "itemId",
          "type": "uint256"
        },
        {
          "internalType": "address",
          "name": "nftContract",
          "type": "address"
        },
        {
          "internalType": "uint256",
          "name": "tokenId",
          "type": "uint256"
        },
        {
          "internalType": "address payable",
          "name": "seller",
          "type": "address"
        },
        {
          "internalType": "address payable",
          "name": "buyer",
          "type": "address"
        },
        {
          "internalType": "string",
          "name": "category",
          "type": "string"
        },
        {
          "internalType": "uint256",
          "name": "price",
          "type": "uint256"
        },
        {
          "internalType": "bool",
          "name": "isSold",
          "type": "bool"
        },
        {
          "internalType": "bool",
          "name": "cancelled",
          "type": "bool"
        }
      ],
      "stateMutability": "view",
      "type": "function"
    },
    {
      "inputs": [
        {
          "internalType": "uint256",
          "name": "itemId",
          "type": "uint256"
        }
      ],
      "name": "makeOffer",
      "outputs": [],
      "stateMutability": "payable",
      "type": "function"
    },
    {
      "inputs": [],
      "name": "numberOfItemsListed",
      "outputs": [
        {
          "internalType": "uint256",
          "name": "",
          "type": "uint256"
        }
      ],
      "stateMutability": "view",
      "type": "function"
    },
    {
      "inputs": [],
      "name": "owner",
      "outputs": [
        {
          "internalType": "address payable",
          "name": "",
          "type": "address"
        }
      ],
      "stateMutability": "view",
      "type": "function"
    },
    {
      "inputs": [],
      "name": "saleFeePercentage",
      "outputs": [
        {
          "internalType": "uint256",
          "name": "",
          "type": "uint256"
        }
      ],
      "stateMutability": "view",
      "type": "function"
    },
    {
      "inputs": [
        {
          "internalType": "address",
          "name": "_discountManager",
          "type": "address"
        }
      ],
      "name": "setDiscountManager",
      "outputs": [],
      "stateMutability": "nonpayable",
      "type": "function"
    },
    {
      "inputs": [
        {
          "internalType": "address",
          "name": "_owner",
          "type": "address"
        }
      ],
      "name": "setOwner",
      "outputs": [],
      "stateMutability": "nonpayable",
      "type": "function"
    },
    {
      "inputs": [
        {
          "internalType": "uint256",
          "name": "_amount",
          "type": "uint256"
        }
      ],
      "name": "setSalePercentageFee",
      "outputs": [],
      "stateMutability": "nonpayable",
      "type": "function"
    },
    {
      "inputs": [],
      "name": "volumeTraded",
      "outputs": [
        {
          "internalType": "uint256",
          "name": "",
          "type": "uint256"
        }
      ],
      "stateMutability": "view",
      "type": "function"
    }
  ],
  "bytecode": "0x6080604052600680546001600160a01b03191690556005600755600060085534801561002a57600080fd5b5060016000556130298061003f6000396000f3fe6080604052600436106101355760003560e01c80639a2f6474116100ab578063c4b151411161006f578063c4b1514114610336578063d45557cc1461034b578063dfba49591461036b578063e61a70c0146103a3578063ee45a711146103d8578063ee6ba234146103eb57600080fd5b80639a2f6474146102c5578063a6e22b02146102d8578063b027a725146102f8578063b1433f7f1461030d578063be9af5361461032357600080fd5b80637be3f006116100fd5780637be3f006146101f45780637cbad146146102185780637ee87a271461022d57806381257bd5146102655780638da5cb5b1461028557806395478fbf146102a557600080fd5b806301839ee31461013a57806313af40351461015c57806317ce4f1e1461017c57806329aa3a421461019c5780636bb3277b146101c7575b600080fd5b34801561014657600080fd5b5061015a6101553660046128e0565b610400565b005b34801561016857600080fd5b5061015a610177366004612911565b610472565b34801561018857600080fd5b5061015a610197366004612911565b6104fd565b3480156101a857600080fd5b506101b1610588565b6040516101be919061297b565b60405180910390f35b3480156101d357600080fd5b506101e76101e23660046128e0565b610841565b6040516101be9190612a5d565b34801561020057600080fd5b5061020a60075481565b6040519081526020016101be565b34801561022457600080fd5b506101b1610abd565b34801561023957600080fd5b5060065461024d906001600160a01b031681565b6040516001600160a01b0390911681526020016101be565b34801561027157600080fd5b5061015a610280366004612ae2565b610d44565b34801561029157600080fd5b5060055461024d906001600160a01b031681565b3480156102b157600080fd5b506101b16102c0366004612b4d565b611220565b61015a6102d33660046128e0565b61166e565b3480156102e457600080fd5b5061015a6102f33660046128e0565b6118aa565b34801561030457600080fd5b5061020a611aaa565b34801561031957600080fd5b5061020a60085481565b61015a6103313660046128e0565b611ad0565b34801561034257600080fd5b5061020a611ed9565b34801561035757600080fd5b5061015a610366366004612ae2565b611ee9565b34801561037757600080fd5b5061020a610386366004612b8f565b600a60209081526000928352604080842090915290825290205481565b3480156103af57600080fd5b506103c36103be3660046128e0565b612172565b6040516101be99989796959493929190612bbb565b61015a6103e6366004612c22565b61225a565b3480156103f757600080fd5b506101b1612508565b6005546001600160a01b0316331461041757600080fd5b600581111561046d5760405162461bcd60e51b815260206004820152601760248201527f3525206d6178696d756d2066656520616c6c6f7765642e00000000000000000060448201526064015b60405180910390fd5b600755565b6005546001600160a01b0316331461048957600080fd5b6001600160a01b0381166104db5760405162461bcd60e51b81526020600482015260196024820152780c1e0c081859191c995cdcc81b9bdd081c195c9b5a5d1d1959603a1b6044820152606401610464565b600580546001600160a01b0319166001600160a01b0392909216919091179055565b6005546001600160a01b0316331461051457600080fd5b6001600160a01b0381166105665760405162461bcd60e51b81526020600482015260196024820152780c1e0c081859191c995cdcc81b9bdd081c195c9b5a5d1d1959603a1b6044820152606401610464565b600680546001600160a01b0319166001600160a01b0392909216919091179055565b6060600061059560015490565b905060006105a260035490565b6002546105af9190612ca2565b6001546105bc9190612cba565b90506000808267ffffffffffffffff8111156105da576105da612cd1565b60405190808252806020026020018201604052801561061357816020015b6106006127fc565b8152602001906001900390816105f85790505b50905060005b84811015610838576000600981610631846001612ca2565b81526020810191909152604001600020600401546001600160a01b0316148015610683575060096000610665836001612ca2565b8152602081019190915260400160002060070154610100900460ff16155b80156106b2575060096000610699836001612ca2565b815260208101919091526040016000206007015460ff16155b156108265760006009816106c7846001612ca2565b8152602080820192909252604090810160009081205480825260098452908290208251610120810184528154815260018201546001600160a01b039081169582019590955260028201549381019390935260038101548416606084015260048101549093166080830152600583018054919450839160a08401919061074b90612ce7565b80601f016020809104026020016040519081016040528092919081815260200182805461077790612ce7565b80156107c45780601f10610799576101008083540402835291602001916107c4565b820191906000526020600020905b8154815290600101906020018083116107a757829003601f168201915b50505091835250506006820154602082015260079091015460ff80821615156040840152610100909104161515606090910152845185908790811061080b5761080b612d22565b6020908102919091010152610821600186612ca2565b945050505b8061083081612d38565b915050610619565b50949350505050565b60606000806000600b6000868152602001908152602001600020805480602002602001604051908101604052809291908181526020016000905b828210156108f75760008481526020908190206040805160c08101825260058602909201805483526001808201546001600160a01b031684860152600282015492840192909252600381015460608401526004015460ff8082161515608085015261010090910416151560a0830152908352909201910161087b565b50505050905060005b815181101561097a5781818151811061091b5761091b612d22565b602090810291909101015160a00151158015610955575081818151811061094457610944612d22565b602090810291909101015160800151155b15610968578361096481612d38565b9450505b8061097281612d38565b915050610900565b5060008367ffffffffffffffff81111561099657610996612cd1565b6040519080825280602002602001820160405280156109f657816020015b6040805160c08101825260008082526020808301829052928201819052606082018190526080820181905260a082015282526000199092019101816109b45790505b50905060005b8251811015610ab357828181518110610a1757610a17612d22565b602090810291909101015160a00151158015610a515750828181518110610a4057610a40612d22565b602090810291909101015160800151155b15610aa1576000838281518110610a6a57610a6a612d22565b6020026020010151905080838681518110610a8757610a87612d22565b6020908102919091010152610a9d600186612ca2565b9450505b80610aab81612d38565b9150506109fc565b5095945050505050565b60606000610aca60015490565b905060008060005b83811015610b2d573360096000610aea846001612ca2565b81526020810191909152604001600020600301546001600160a01b03161415610b1b57610b18600184612ca2565b92505b80610b2581612d38565b915050610ad2565b5060008267ffffffffffffffff811115610b4957610b49612cd1565b604051908082528060200260200182016040528015610b8257816020015b610b6f6127fc565b815260200190600190039081610b675790505b50905060005b84811015610838573360096000610ba0846001612ca2565b81526020810191909152604001600020600301546001600160a01b03161415610d32576000600981610bd3846001612ca2565b8152602080820192909252604090810160009081205480825260098452908290208251610120810184528154815260018201546001600160a01b039081169582019590955260028201549381019390935260038101548416606084015260048101549093166080830152600583018054919450839160a084019190610c5790612ce7565b80601f0160208091040260200160405190810160405280929190818152602001828054610c8390612ce7565b8015610cd05780601f10610ca557610100808354040283529160200191610cd0565b820191906000526020600020905b815481529060010190602001808311610cb357829003601f168201915b50505091835250506006820154602082015260079091015460ff808216151560408401526101009091041615156060909101528451859087908110610d1757610d17612d22565b6020908102919091010152610d2d600186612ca2565b945050505b80610d3c81612d38565b915050610b88565b60026000541415610d675760405162461bcd60e51b815260040161046490612d53565b60026000908155828152600b6020526040902054811115610dc05760405162461bcd60e51b8152602060048201526013602482015272092dcecc2d8d2c840decccccae440d2dcc8caf606b1b6044820152606401610464565b60008281526009602052604090206007015460ff16158015610df95750600082815260096020526040902060070154610100900460ff16155b610e155760405162461bcd60e51b815260040161046490612d8a565b6000828152600b60205260409020805482908110610e3557610e35612d22565b6000918252602090912060059091020160040154610100900460ff16158015610e9257506000828152600b60205260409020805482908110610e7957610e79612d22565b600091825260209091206004600590920201015460ff16155b610ede5760405162461bcd60e51b815260206004820152601e60248201527f416c7265616479206163636570746564206f722063616e63656c6c65642e00006044820152606401610464565b6000828152600b60205260408120805483908110610efe57610efe612d22565b60009182526020808320600260059093020182015486845260098252604080852090930154600b909252918320805492945090929185908110610f4357610f43612d22565b600091825260208220600160059092020101546007546001600160a01b039091169250610f7b90610f7586606461278f565b906127a4565b6000878152600b60205260409020805491925060019187908110610fa157610fa1612d22565b6000918252602090912060046005909202010180549115156101000261ff00199092169190911790556006546001600160a01b03161561106c576006546040516303793c8d60e11b81523360048201526000916001600160a01b0316906306f2791a9060240160206040518083038186803b15801561101f57600080fd5b505afa158015611033573d6000803e3d6000fd5b505050506040513d601f19601f820116820180604052508101906110579190612dc1565b905061106881610f7584606461278f565b9150505b600061107885836127e0565b6000888152600960205260408082206003015490519293506001600160a01b03169183156108fc0291849190818181858888f193505050501580156110c1573d6000803e3d6000fd5b50600087815260096020526040908190206001015490516323b872dd60e01b81526001600160a01b03909116906323b872dd9061110690309087908990600401612dda565b600060405180830381600087803b15801561112057600080fd5b505af1158015611134573d6000803e3d6000fd5b505050600088815260096020526040902060078101805460ff1916600117905560040180546001600160a01b0386166001600160a01b031990911617905550611181600280546001019055565b60008781526009602081815260408084206001810180546001600160a01b039081168752600a8552838720600284015488528552838720879055958d9052939092529154600382015492518894918216938c937f1f4ecd8562ffa9ee0b2ae53cd3747ab603ad7fd1a39605f4a9cb2fc083cd7b6a9361120a939216913391600501908d90612dfe565b60405180910390a4505060016000555050505050565b6060600061122d60015490565b905060008060005b8381101561136d578686604051602001611250929190612eaa565b60405160208183030381529060405280519060200120600960008360016112779190612ca2565b81526020019081526020016000206005016040516020016112989190612eba565b604051602081830303815290604052805190602001201480156112e5575060006009816112c6846001612ca2565b81526020810191909152604001600020600401546001600160a01b0316145b80156113195750600960006112fb836001612ca2565b8152602081019190915260400160002060070154610100900460ff16155b801561134857506009600061132f836001612ca2565b815260208101919091526040016000206007015460ff16155b1561135b57611358600184612ca2565b92505b8061136581612d38565b915050611235565b5060008267ffffffffffffffff81111561138957611389612cd1565b6040519080825280602002602001820160405280156113c257816020015b6113af6127fc565b8152602001906001900390816113a75790505b50905060005b848110156116615787876040516020016113e3929190612eaa565b604051602081830303815290604052805190602001206009600083600161140a9190612ca2565b815260200190815260200160002060050160405160200161142b9190612eba565b6040516020818303038152906040528051906020012014801561147857506000600981611459846001612ca2565b81526020810191909152604001600020600401546001600160a01b0316145b80156114ac57506009600061148e836001612ca2565b8152602081019190915260400160002060070154610100900460ff16155b80156114db5750600960006114c2836001612ca2565b815260208101919091526040016000206007015460ff16155b1561164f5760006009816114f0846001612ca2565b8152602080820192909252604090810160009081205480825260098452908290208251610120810184528154815260018201546001600160a01b039081169582019590955260028201549381019390935260038101548416606084015260048101549093166080830152600583018054919450839160a08401919061157490612ce7565b80601f01602080910402602001604051908101604052809291908181526020018280546115a090612ce7565b80156115ed5780601f106115c2576101008083540402835291602001916115ed565b820191906000526020600020905b8154815290600101906020018083116115d057829003601f168201915b50505091835250506006820154602082015260079091015460ff80821615156040840152610100909104161515606090910152845185908790811061163457611634612d22565b602090810291909101015261164a600186612ca2565b945050505b8061165981612d38565b9150506113c8565b5093505050505b92915050565b600260005414156116915760405162461bcd60e51b815260040161046490612d53565b600260005580158015906116a757506001548111155b6116e65760405162461bcd60e51b815260206004820152601060248201526f24b73b30b634b21034ba32b69034b21760811b6044820152606401610464565b60008181526009602052604090206007015460ff1615801561171f5750600081815260096020526040902060070154610100900460ff16155b61173b5760405162461bcd60e51b815260040161046490612d8a565b6000818152600960205260409020600301546001600160a01b03163314156117a55760405162461bcd60e51b815260206004820152601b60248201527f43616e277420626964206f6e20796f7572206f776e206974656d2e00000000006044820152606401610464565b600034116117ec5760405162461bcd60e51b815260206004820152601460248201527321b0b713ba1037b33332b9103737ba3434b7339760611b6044820152606401610464565b6000908152600b602090815260408083208054825160c081018452818152338186019081523494820194855242606083019081526080830188815260a0840189815260018087018855968a5297892093516005909502909301938455905183850180546001600160a01b0319166001600160a01b039092169190911790559351600283015592516003820155915160049092018054935161ffff1990941692151561ff00191692909217610100931515939093029290921790559055565b6001548111156118b957600080fd5b6000818152600960205260409020600301546001600160a01b031633146118df57600080fd5b600081815260096020526040902060070154610100900460ff16158015611918575060008181526009602052604090206007015460ff16155b61192157600080fd5b60008181526009602052604090819020600181015460029091015491516331a9108f60e11b8152600481019290925230916001600160a01b0390911690636352211e9060240160206040518083038186803b15801561197f57600080fd5b505afa158015611993573d6000803e3d6000fd5b505050506040513d601f19601f820116820180604052508101906119b79190612f2c565b6001600160a01b0316146119ca57600080fd5b6000818152600960205260409020600701805461ff0019166101001790556119f6600380546001019055565b60008181526009602052604090819020600181015460029091015491516323b872dd60e01b81526001600160a01b03909116916323b872dd91611a40913091339190600401612dda565b600060405180830381600087803b158015611a5a57600080fd5b505af1158015611a6e573d6000803e3d6000fd5b50505060009182525060096020908152604080832060018101546001600160a01b03168452600a83528184206002909101548452909152812055565b600080611ab660035490565b600254611ac39190612ca2565b6001546116689190612cba565b60026000541415611af35760405162461bcd60e51b815260040161046490612d53565b600260008181558281526009602052604090206006810154910154348214611b775760405162461bcd60e51b815260206004820152603160248201527f506c65617365206d616b652074686520707269636520746f2062652073616d65604482015270206173206c697374696e6720707269636560781b6064820152608401610464565b60008381526009602052604090206007015460ff1615611bd95760405162461bcd60e51b815260206004820152601a60248201527f54686973206974656d20697320616c726561647920736f6c642e0000000000006044820152606401610464565b600083815260096020526040902060070154610100900460ff1615611c105760405162461bcd60e51b815260040161046490612d8a565b6000838152600960205260409020600301546001600160a01b0316331415611c7a5760405162461bcd60e51b815260206004820152601960248201527f43616e6e6f742062757920796f7572206f776e206974656d2e000000000000006044820152606401610464565b6000611c8d600754610f7585606461278f565b6006549091506001600160a01b031615611d32576006546040516303793c8d60e11b81523360048201526000916001600160a01b0316906306f2791a9060240160206040518083038186803b158015611ce557600080fd5b505afa158015611cf9573d6000803e3d6000fd5b505050506040513d601f19601f82011682018060405250810190611d1d9190612dc1565b9050611d2e81610f7584606461278f565b9150505b6000611d3e84836127e0565b6000868152600960205260408082206003015490519293506001600160a01b03169183156108fc0291849190818181858888f19350505050158015611d87573d6000803e3d6000fd5b50600085815260096020526040908190206001015490516323b872dd60e01b81526001600160a01b03909116906323b872dd90611dcc90309033908890600401612dda565b600060405180830381600087803b158015611de657600080fd5b505af1158015611dfa573d6000803e3d6000fd5b505050600086815260096020526040902060078101805460ff1916600117905560040180546001600160a01b0319163317905550611e3c600280546001019055565b60008581526009602081815260408084206001810180546001600160a01b039081168752600a8552838720600284015488528552838720879055958b9052939092529154600382015492518794918216938a937f1f4ecd8562ffa9ee0b2ae53cd3747ab603ad7fd1a39605f4a9cb2fc083cd7b6a93611ec5939216913391600501908c90612dfe565b60405180910390a450506001600055505050565b6000611ee460025490565b905090565b60026000541415611f0c5760405162461bcd60e51b815260040161046490612d53565b60026000908155828152600b60205260409020805433919083908110611f3457611f34612d22565b60009182526020909120600160059092020101546001600160a01b0316148015611f9257506000828152600b60205260409020805482908110611f7957611f79612d22565b600091825260209091206004600590920201015460ff16155b611ff15760405162461bcd60e51b815260206004820152602a60248201527f57726f6e6720626964646572206f72206f6666657220697320616c72656164796044820152690818d85b98d95b1b195960b21b6064820152608401610464565b6000828152600b6020526040902080548290811061201157612011612d22565b6000918252602090912060059091020160040154610100900460ff161561206e5760405162461bcd60e51b815260206004820152601160248201527020b63932b0b23c9030b1b1b2b83a32b21760791b6044820152606401610464565b6000828152600b6020526040812080548390811061208e5761208e612d22565b600091825260208083206001600590930201820154868452600b909152604090922080546001600160a01b0390931693509091849081106120d1576120d1612d22565b906000526020600020906005020160040160006101000a81548160ff021916908315150217905550806001600160a01b03166108fc600b6000868152602001908152602001600020848154811061212a5761212a612d22565b9060005260206000209060050201600201549081150290604051600060405180830381858888f19350505050158015612167573d6000803e3d6000fd5b505060016000555050565b60096020526000908152604090208054600182015460028301546003840154600485015460058601805495966001600160a01b039586169694959384169493909216926121be90612ce7565b80601f01602080910402602001604051908101604052809291908181526020018280546121ea90612ce7565b80156122375780601f1061220c57610100808354040283529160200191612237565b820191906000526020600020905b81548152906001019060200180831161221a57829003601f168201915b50505050600683015460079093015491929160ff80821692506101009091041689565b6002600054141561227d5760405162461bcd60e51b815260040161046490612d53565b6002600055826122c75760405162461bcd60e51b81526020600482015260156024820152744e6f206974656d20666f722066726565206865726560581b6044820152606401610464565b6122d5600180546001019055565b60006122e060015490565b9050604051806101200160405280828152602001876001600160a01b03168152602001868152602001336001600160a01b0316815260200160006001600160a01b0316815260200184848080601f0160208091040260200160405190810160405280939291908181526020018383808284376000920182905250938552505050602080830188905260408084018390526060938401839052858352600982529182902084518155848201516001820180546001600160a01b03199081166001600160a01b0393841617909155938601516002830155938501516003820180548516918616919091179055608085015160048201805490941694169390931790915560a083015180516123f89260058501920190612847565b5060c0820151600682015560e0820151600790910180546101009384015161ffff1990911692151561ff001916929092179115159092021790556040516323b872dd60e01b81526001600160a01b038716906323b872dd9061246290339030908a90600401612dda565b600060405180830381600087803b15801561247c57600080fd5b505af1158015612490573d6000803e3d6000fd5b5050506001600160a01b0387166000818152600a602090815260408083208a84529091528082208590555188935084917f4c09a2403c2befd5be76d6a6c9f3d18c1cc75607148bf7121c0ecfb0d5596ece916124f39133918a908a908d90612f49565b60405180910390a45050600160005550505050565b6060600061251560015490565b905060008060005b83811015612578573360096000612535846001612ca2565b81526020810191909152604001600020600401546001600160a01b0316141561256657612563600184612ca2565b92505b8061257081612d38565b91505061251d565b5060008267ffffffffffffffff81111561259457612594612cd1565b6040519080825280602002602001820160405280156125cd57816020015b6125ba6127fc565b8152602001906001900390816125b25790505b50905060005b848110156108385733600960006125eb846001612ca2565b81526020810191909152604001600020600401546001600160a01b0316141561277d57600060098161261e846001612ca2565b8152602080820192909252604090810160009081205480825260098452908290208251610120810184528154815260018201546001600160a01b039081169582019590955260028201549381019390935260038101548416606084015260048101549093166080830152600583018054919450839160a0840191906126a290612ce7565b80601f01602080910402602001604051908101604052809291908181526020018280546126ce90612ce7565b801561271b5780601f106126f05761010080835404028352916020019161271b565b820191906000526020600020905b8154815290600101906020018083116126fe57829003601f168201915b50505091835250506006820154602082015260079091015460ff80821615156040840152610100909104161515606090910152845185908790811061276257612762612d22565b6020908102919091010152612778600186612ca2565b945050505b8061278781612d38565b9150506125d3565b60008061279c8385612f9c565b949350505050565b6000826127b357506000611668565b60006127bf8385612fbe565b9050826127cc8583612f9c565b146127d9576127d9612fdd565b9392505050565b6000828211156127f2576127f2612fdd565b6127d98284612cba565b604080516101208101825260008082526020820181905291810182905260608082018390526080820183905260a082015260c0810182905260e0810182905261010081019190915290565b82805461285390612ce7565b90600052602060002090601f01602090048101928261287557600085556128bb565b82601f1061288e57805160ff19168380011785556128bb565b828001600101855582156128bb579182015b828111156128bb5782518255916020019190600101906128a0565b506128c79291506128cb565b5090565b5b808211156128c757600081556001016128cc565b6000602082840312156128f257600080fd5b5035919050565b6001600160a01b038116811461290e57600080fd5b50565b60006020828403121561292357600080fd5b81356127d9816128f9565b6000815180845260005b8181101561295457602081850181015186830182015201612938565b81811115612966576000602083870101525b50601f01601f19169290920160200192915050565b60006020808301818452808551808352604092508286019150828160051b87010184880160005b83811015612a4f57603f19898403018552815180518452878101516001600160a01b039081168986015287820151888601526060808301518216908601526080808301519091169085015260a0808201516101208287018190529190612a0a8388018261292e565b9250505060c080830151818701525060e080830151612a2c8288018215159052565b5050610100918201511515949091019390935293860193908601906001016129a2565b509098975050505050505050565b602080825282518282018190526000919060409081850190868401855b82811015612ad557815180518552868101516001600160a01b03168786015285810151868601526060808201519086015260808082015115159086015260a09081015115159085015260c09093019290850190600101612a7a565b5091979650505050505050565b60008060408385031215612af557600080fd5b50508035926020909101359150565b60008083601f840112612b1657600080fd5b50813567ffffffffffffffff811115612b2e57600080fd5b602083019150836020828501011115612b4657600080fd5b9250929050565b60008060208385031215612b6057600080fd5b823567ffffffffffffffff811115612b7757600080fd5b612b8385828601612b04565b90969095509350505050565b60008060408385031215612ba257600080fd5b8235612bad816128f9565b946020939093013593505050565b8981526001600160a01b0389811660208301526040820189905287811660608301528616608082015261012060a08201819052600090612bfd8382018861292e565b60c0840196909652505091151560e08301521515610100909101529695505050505050565b600080600080600060808688031215612c3a57600080fd5b8535612c45816128f9565b94506020860135935060408601359250606086013567ffffffffffffffff811115612c6f57600080fd5b612c7b88828901612b04565b969995985093965092949392505050565b634e487b7160e01b600052601160045260246000fd5b60008219821115612cb557612cb5612c8c565b500190565b600082821015612ccc57612ccc612c8c565b500390565b634e487b7160e01b600052604160045260246000fd5b600181811c90821680612cfb57607f821691505b60208210811415612d1c57634e487b7160e01b600052602260045260246000fd5b50919050565b634e487b7160e01b600052603260045260246000fd5b6000600019821415612d4c57612d4c612c8c565b5060010190565b6020808252601f908201527f5265656e7472616e637947756172643a207265656e7472616e742063616c6c00604082015260600190565b6020808252601a908201527f54686973206974656d206973206e6f7420666f722073616c652e000000000000604082015260600190565b600060208284031215612dd357600080fd5b5051919050565b6001600160a01b039384168152919092166020820152604081019190915260600190565b6001600160a01b03858116825284166020808301919091526080604083015283546000918291612e2d81612ce7565b80608087015260a0600180841660008114612e4f5760018114612e6357612e91565b60ff1985168984015260c089019650612e91565b8a6000528560002060005b85811015612e895781548b8201860152908301908701612e6e565b8a0184019750505b5050505050508091505082606083015295945050505050565b8183823760009101908152919050565b6000808354612ec881612ce7565b60018281168015612ee05760018114612ef157612f20565b60ff19841687528287019450612f20565b8760005260208060002060005b85811015612f175781548a820152908401908201612efe565b50505082870194505b50929695505050505050565b600060208284031215612f3e57600080fd5b81516127d9816128f9565b6001600160a01b0386811682528516602082015260806040820181905281018390526000838560a0840137600060a0858401015260a0601f19601f86011683010190508260608301529695505050505050565b600082612fb957634e487b7160e01b600052601260045260246000fd5b500490565b6000816000190483118215151615612fd857612fd8612c8c565b500290565b634e487b7160e01b600052600160045260246000fdfea264697066735822122048296f99c29177ca89e4acc025263075ad4135b3b1f526a8f959e7f68d76711964736f6c63430008090033",
  "linkReferences": {},
  "deployedLinkReferences": {}
}